{
  "_format": "hh-sol-artifact-1",
  "contractName": "TokenizedBallot",
  "sourceName": "contracts/TokenizedBallot.sol",
  "abi": [
    {
      "inputs": [
        {
          "internalType": "bytes32[]",
          "name": "_proposalNames",
          "type": "bytes32[]"
        },
        {
          "internalType": "address",
          "name": "_tokenContract",
          "type": "address"
        },
        {
          "internalType": "uint256",
          "name": "_targetBlockNumber",
          "type": "uint256"
        }
      ],
      "stateMutability": "nonpayable",
      "type": "constructor"
    },
    {
      "inputs": [
        {
          "internalType": "address",
          "name": "owner",
          "type": "address"
        }
      ],
      "name": "OwnableInvalidOwner",
      "type": "error"
    },
    {
      "inputs": [
        {
          "internalType": "address",
          "name": "account",
          "type": "address"
        }
      ],
      "name": "OwnableUnauthorizedAccount",
      "type": "error"
    },
    {
      "anonymous": false,
      "inputs": [
        {
          "indexed": true,
          "internalType": "address",
          "name": "previousOwner",
          "type": "address"
        },
        {
          "indexed": true,
          "internalType": "address",
          "name": "newOwner",
          "type": "address"
        }
      ],
      "name": "OwnershipTransferred",
      "type": "event"
    },
    {
      "inputs": [
        {
          "internalType": "address",
          "name": "voter",
          "type": "address"
        }
      ],
      "name": "getVotePower",
      "outputs": [
        {
          "internalType": "uint256",
          "name": "",
          "type": "uint256"
        }
      ],
      "stateMutability": "view",
      "type": "function"
    },
    {
      "inputs": [],
      "name": "owner",
      "outputs": [
        {
          "internalType": "address",
          "name": "",
          "type": "address"
        }
      ],
      "stateMutability": "view",
      "type": "function"
    },
    {
      "inputs": [
        {
          "internalType": "uint256",
          "name": "",
          "type": "uint256"
        }
      ],
      "name": "proposals",
      "outputs": [
        {
          "internalType": "bytes32",
          "name": "name",
          "type": "bytes32"
        },
        {
          "internalType": "uint256",
          "name": "voteCount",
          "type": "uint256"
        }
      ],
      "stateMutability": "view",
      "type": "function"
    },
    {
      "inputs": [],
      "name": "renounceOwnership",
      "outputs": [],
      "stateMutability": "nonpayable",
      "type": "function"
    },
    {
      "inputs": [
        {
          "internalType": "uint256",
          "name": "_targetBlockNumber",
          "type": "uint256"
        }
      ],
      "name": "setTargetBlockNumber",
      "outputs": [],
      "stateMutability": "nonpayable",
      "type": "function"
    },
    {
      "inputs": [],
      "name": "targetBlockNumber",
      "outputs": [
        {
          "internalType": "uint256",
          "name": "",
          "type": "uint256"
        }
      ],
      "stateMutability": "view",
      "type": "function"
    },
    {
      "inputs": [],
      "name": "tokenContract",
      "outputs": [
        {
          "internalType": "contract IMyToken",
          "name": "",
          "type": "address"
        }
      ],
      "stateMutability": "view",
      "type": "function"
    },
    {
      "inputs": [
        {
          "internalType": "address",
          "name": "newOwner",
          "type": "address"
        }
      ],
      "name": "transferOwnership",
      "outputs": [],
      "stateMutability": "nonpayable",
      "type": "function"
    },
    {
      "inputs": [
        {
          "internalType": "uint256",
          "name": "proposal",
          "type": "uint256"
        },
        {
          "internalType": "uint256",
          "name": "amount",
          "type": "uint256"
        }
      ],
      "name": "vote",
      "outputs": [],
      "stateMutability": "nonpayable",
      "type": "function"
    },
    {
      "inputs": [
        {
          "internalType": "address",
          "name": "",
          "type": "address"
        }
      ],
      "name": "votePowerSpent",
      "outputs": [
        {
          "internalType": "uint256",
          "name": "",
          "type": "uint256"
        }
      ],
      "stateMutability": "view",
      "type": "function"
    },
    {
      "inputs": [],
      "name": "winnerName",
      "outputs": [
        {
          "internalType": "bytes32",
          "name": "winnerName_",
          "type": "bytes32"
        }
      ],
      "stateMutability": "view",
      "type": "function"
    },
    {
      "inputs": [],
      "name": "winningProposal",
      "outputs": [
        {
          "internalType": "uint256",
          "name": "winningProposal_",
          "type": "uint256"
        }
      ],
      "stateMutability": "view",
      "type": "function"
    }
  ],
  "bytecode": "0x60806040523480156200001157600080fd5b5060405162001c6a38038062001c6a83398181016040528101906200003791906200079f565b33600073ffffffffffffffffffffffffffffffffffffffff168173ffffffffffffffffffffffffffffffffffffffff1603620000ad5760006040517f1e4fbdf7000000000000000000000000000000000000000000000000000000008152600401620000a491906200082b565b60405180910390fd5b620000be816200022c60201b60201c565b5081600160006101000a81548173ffffffffffffffffffffffffffffffffffffffff021916908373ffffffffffffffffffffffffffffffffffffffff1602179055504381106200011482620002f060201b60201c565b6200012543620002f060201b60201c565b604051602001620001389291906200095d565b604051602081830303815290604052906200018b576040517f08c379a0000000000000000000000000000000000000000000000000000000008152600401620001829190620009f5565b60405180910390fd5b508060038190555060005b8351811015620002225760026040518060400160405280868481518110620001c357620001c262000a19565b5b602002602001015181526020016000815250908060018154018082558091505060019003906000526020600020906002020160009091909190915060008201518160000155602082015181600101555050808060010191505062000196565b5050505062000a77565b60008060009054906101000a900473ffffffffffffffffffffffffffffffffffffffff169050816000806101000a81548173ffffffffffffffffffffffffffffffffffffffff021916908373ffffffffffffffffffffffffffffffffffffffff1602179055508173ffffffffffffffffffffffffffffffffffffffff168173ffffffffffffffffffffffffffffffffffffffff167f8be0079c531659141344cd1fd0a4f28419497f9722a3daafe3b4186f6b6457e060405160405180910390a35050565b6060600060016200030784620003cf60201b60201c565b01905060008167ffffffffffffffff81111562000329576200032862000565565b5b6040519080825280601f01601f1916602001820160405280156200035c5781602001600182028036833780820191505090505b509050600082602001820190505b600115620003c4578080600190039150507f3031323334353637383961626364656600000000000000000000000000000000600a86061a8153600a8581620003b757620003b662000a48565b5b049450600085036200036a575b819350505050919050565b600080600090507a184f03e93ff9f4daa797ed6e38ed64bf6a1f010000000000000000831062000431577a184f03e93ff9f4daa797ed6e38ed64bf6a1f010000000000000000838162000427576200042662000a48565b5b0492506040810190505b6d04ee2d6d415b85acef8100000000831062000472576d04ee2d6d415b85acef8100000000838162000468576200046762000a48565b5b0492506020810190505b662386f26fc100008310620004a557662386f26fc1000083816200049b576200049a62000a48565b5b0492506010810190505b6305f5e1008310620004d2576305f5e1008381620004c857620004c762000a48565b5b0492506008810190505b6127108310620004fb576127108381620004f157620004f062000a48565b5b0492506004810190505b6064831062000522576064838162000518576200051762000a48565b5b0492506002810190505b600a831062000532576001810190505b80915050919050565b6000604051905090565b600080fd5b600080fd5b600080fd5b6000601f19601f8301169050919050565b7f4e487b7100000000000000000000000000000000000000000000000000000000600052604160045260246000fd5b6200059f8262000554565b810181811067ffffffffffffffff82111715620005c157620005c062000565565b5b80604052505050565b6000620005d66200053b565b9050620005e4828262000594565b919050565b600067ffffffffffffffff82111562000607576200060662000565565b5b602082029050602081019050919050565b600080fd5b6000819050919050565b62000632816200061d565b81146200063e57600080fd5b50565b600081519050620006528162000627565b92915050565b60006200066f6200066984620005e9565b620005ca565b9050808382526020820190506020840283018581111562000695576200069462000618565b5b835b81811015620006c25780620006ad888262000641565b84526020840193505060208101905062000697565b5050509392505050565b600082601f830112620006e457620006e36200054f565b5b8151620006f684826020860162000658565b91505092915050565b600073ffffffffffffffffffffffffffffffffffffffff82169050919050565b60006200072c82620006ff565b9050919050565b6200073e816200071f565b81146200074a57600080fd5b50565b6000815190506200075e8162000733565b92915050565b6000819050919050565b620007798162000764565b81146200078557600080fd5b50565b60008151905062000799816200076e565b92915050565b600080600060608486031215620007bb57620007ba62000545565b5b600084015167ffffffffffffffff811115620007dc57620007db6200054a565b5b620007ea86828701620006cc565b9350506020620007fd868287016200074d565b9250506040620008108682870162000788565b9150509250925092565b62000825816200071f565b82525050565b60006020820190506200084260008301846200081a565b92915050565b7f4572726f723a2074617267657420626c6f636b206e756d626572200000000000815250565b600081519050919050565b600081905092915050565b60005b83811015620008a457808201518184015260208101905062000887565b60008484015250505050565b6000620008bd826200086e565b620008c9818562000879565b9350620008db81856020860162000884565b80840191505092915050565b7f206973206e6f7420696e2074686520706173742c2073686f756c64206265206c60008201527f657373207468616e000000000000000000000000000000000000000000000000602082015250565b60006200094560288362000879565b91506200095282620008e7565b602882019050919050565b60006200096a8262000848565b601b820191506200097c8285620008b0565b9150620009898262000936565b9150620009978284620008b0565b91508190509392505050565b600082825260208201905092915050565b6000620009c1826200086e565b620009cd8185620009a3565b9350620009df81856020860162000884565b620009ea8162000554565b840191505092915050565b6000602082019050818103600083015262000a118184620009b4565b905092915050565b7f4e487b7100000000000000000000000000000000000000000000000000000000600052603260045260246000fd5b7f4e487b7100000000000000000000000000000000000000000000000000000000600052601260045260246000fd5b6111e38062000a876000396000f3fe608060405234801561001057600080fd5b50600436106100b45760003560e01c80638da5cb5b116100715780638da5cb5b1461016a5780639e90d0d914610188578063b384abef146101b8578063bb9c0920146101d4578063e2ba53f014610204578063f2fde38b14610222576100b4565b8063013cf08b146100b95780632a8cd29e146100ea57806332da83e81461010857806355a373d614610124578063609ff1bd14610142578063715018a614610160575b600080fd5b6100d360048036038101906100ce9190610acf565b61023e565b6040516100e1929190610b24565b60405180910390f35b6100f2610272565b6040516100ff9190610b4d565b60405180910390f35b610122600480360381019061011d9190610acf565b610278565b005b61012c610301565b6040516101399190610be7565b60405180910390f35b61014a610327565b6040516101579190610b4d565b60405180910390f35b6101686103a9565b005b6101726103bd565b60405161017f9190610c23565b60405180910390f35b6101a2600480360381019061019d9190610c6a565b6103e6565b6040516101af9190610b4d565b60405180910390f35b6101d260048036038101906101cd9190610c97565b6103fe565b005b6101ee60048036038101906101e99190610c6a565b610573565b6040516101fb9190610b4d565b60405180910390f35b61020c610666565b6040516102199190610cd7565b60405180910390f35b61023c60048036038101906102379190610c6a565b61069a565b005b6002818154811061024e57600080fd5b90600052602060002090600202016000915090508060000154908060010154905082565b60035481565b610280610720565b43811061028c826107a7565b610295436107a7565b6040516020016102a6929190610dfb565b604051602081830303815290604052906102f6576040517f08c379a00000000000000000000000000000000000000000000000000000000081526004016102ed9190610e94565b60405180910390fd5b508060038190555050565b600160009054906101000a900473ffffffffffffffffffffffffffffffffffffffff1681565b6000806000905060005b6002805490508110156103a457816002828154811061035357610352610eb6565b5b9060005260206000209060020201600101541115610397576002818154811061037f5761037e610eb6565b5b90600052602060002090600202016001015491508092505b8080600101915050610331565b505090565b6103b1610720565b6103bb6000610875565b565b60008060009054906101000a900473ffffffffffffffffffffffffffffffffffffffff16905090565b60046020528060005260406000206000915090505481565b600061040933610573565b90508181101561044e576040517f08c379a000000000000000000000000000000000000000000000000000000000815260040161044590610f57565b60405180910390fd5b60008310158015610463575060028054905083105b61046c846107a7565b61047a6002805490506107a7565b60405160200161048b92919061100f565b604051602081830303815290604052906104db576040517f08c379a00000000000000000000000000000000000000000000000000000000081526004016104d29190610e94565b60405180910390fd5b5081600460003373ffffffffffffffffffffffffffffffffffffffff1673ffffffffffffffffffffffffffffffffffffffff168152602001908152602001600020600082825461052b919061107c565b92505081905550816002848154811061054757610546610eb6565b5b90600052602060002090600202016001016000828254610567919061107c565b92505081905550505050565b6000600460003373ffffffffffffffffffffffffffffffffffffffff1673ffffffffffffffffffffffffffffffffffffffff16815260200190815260200160002054600160009054906101000a900473ffffffffffffffffffffffffffffffffffffffff1673ffffffffffffffffffffffffffffffffffffffff16633a46b1a8846003546040518363ffffffff1660e01b81526004016106149291906110b0565b602060405180830381865afa158015610631573d6000803e3d6000fd5b505050506040513d601f19601f8201168201806040525081019061065591906110ee565b61065f919061111b565b9050919050565b60006002610672610327565b8154811061068357610682610eb6565b5b906000526020600020906002020160000154905090565b6106a2610720565b600073ffffffffffffffffffffffffffffffffffffffff168173ffffffffffffffffffffffffffffffffffffffff16036107145760006040517f1e4fbdf700000000000000000000000000000000000000000000000000000000815260040161070b9190610c23565b60405180910390fd5b61071d81610875565b50565b610728610939565b73ffffffffffffffffffffffffffffffffffffffff166107466103bd565b73ffffffffffffffffffffffffffffffffffffffff16146107a557610769610939565b6040517f118cdaa700000000000000000000000000000000000000000000000000000000815260040161079c9190610c23565b60405180910390fd5b565b6060600060016107b684610941565b01905060008167ffffffffffffffff8111156107d5576107d461114f565b5b6040519080825280601f01601f1916602001820160405280156108075781602001600182028036833780820191505090505b509050600082602001820190505b60011561086a578080600190039150507f3031323334353637383961626364656600000000000000000000000000000000600a86061a8153600a858161085e5761085d61117e565b5b04945060008503610815575b819350505050919050565b60008060009054906101000a900473ffffffffffffffffffffffffffffffffffffffff169050816000806101000a81548173ffffffffffffffffffffffffffffffffffffffff021916908373ffffffffffffffffffffffffffffffffffffffff1602179055508173ffffffffffffffffffffffffffffffffffffffff168173ffffffffffffffffffffffffffffffffffffffff167f8be0079c531659141344cd1fd0a4f28419497f9722a3daafe3b4186f6b6457e060405160405180910390a35050565b600033905090565b600080600090507a184f03e93ff9f4daa797ed6e38ed64bf6a1f010000000000000000831061099f577a184f03e93ff9f4daa797ed6e38ed64bf6a1f01000000000000000083816109955761099461117e565b5b0492506040810190505b6d04ee2d6d415b85acef810000000083106109dc576d04ee2d6d415b85acef810000000083816109d2576109d161117e565b5b0492506020810190505b662386f26fc100008310610a0b57662386f26fc100008381610a0157610a0061117e565b5b0492506010810190505b6305f5e1008310610a34576305f5e1008381610a2a57610a2961117e565b5b0492506008810190505b6127108310610a59576127108381610a4f57610a4e61117e565b5b0492506004810190505b60648310610a7c5760648381610a7257610a7161117e565b5b0492506002810190505b600a8310610a8b576001810190505b80915050919050565b600080fd5b6000819050919050565b610aac81610a99565b8114610ab757600080fd5b50565b600081359050610ac981610aa3565b92915050565b600060208284031215610ae557610ae4610a94565b5b6000610af384828501610aba565b91505092915050565b6000819050919050565b610b0f81610afc565b82525050565b610b1e81610a99565b82525050565b6000604082019050610b396000830185610b06565b610b466020830184610b15565b9392505050565b6000602082019050610b626000830184610b15565b92915050565b600073ffffffffffffffffffffffffffffffffffffffff82169050919050565b6000819050919050565b6000610bad610ba8610ba384610b68565b610b88565b610b68565b9050919050565b6000610bbf82610b92565b9050919050565b6000610bd182610bb4565b9050919050565b610be181610bc6565b82525050565b6000602082019050610bfc6000830184610bd8565b92915050565b6000610c0d82610b68565b9050919050565b610c1d81610c02565b82525050565b6000602082019050610c386000830184610c14565b92915050565b610c4781610c02565b8114610c5257600080fd5b50565b600081359050610c6481610c3e565b92915050565b600060208284031215610c8057610c7f610a94565b5b6000610c8e84828501610c55565b91505092915050565b60008060408385031215610cae57610cad610a94565b5b6000610cbc85828601610aba565b9250506020610ccd85828601610aba565b9150509250929050565b6000602082019050610cec6000830184610b06565b92915050565b7f4572726f723a2074617267657420626c6f636b206e756d626572200000000000815250565b600081519050919050565b600081905092915050565b60005b83811015610d4c578082015181840152602081019050610d31565b60008484015250505050565b6000610d6382610d18565b610d6d8185610d23565b9350610d7d818560208601610d2e565b80840191505092915050565b7f206973206e6f7420696e2074686520706173742c2073686f756c64206265206c60008201527f657373207468616e200000000000000000000000000000000000000000000000602082015250565b6000610de5602983610d23565b9150610df082610d89565b602982019050919050565b6000610e0682610cf2565b601b82019150610e168285610d58565b9150610e2182610dd8565b9150610e2d8284610d58565b91508190509392505050565b600082825260208201905092915050565b6000601f19601f8301169050919050565b6000610e6682610d18565b610e708185610e39565b9350610e80818560208601610d2e565b610e8981610e4a565b840191505092915050565b60006020820190508181036000830152610eae8184610e5b565b905092915050565b7f4e487b7100000000000000000000000000000000000000000000000000000000600052603260045260246000fd5b7f4572726f723a20747279696e6720746f20766f74652077697468206d6f72652060008201527f766f746573207468616e20617661696c61626c65000000000000000000000000602082015250565b6000610f41603483610e39565b9150610f4c82610ee5565b604082019050919050565b60006020820190508181036000830152610f7081610f34565b9050919050565b7f496e76616c69642070726f706f73616c206e756d626572000000000000000000815250565b7f2e20456e74657220612070726f706f73616c206e756d6265722062657477656560008201527f6e203020616e6420000000000000000000000000000000000000000000000000602082015250565b6000610ff9602883610d23565b915061100482610f9d565b602882019050919050565b600061101a82610f77565b60178201915061102a8285610d58565b915061103582610fec565b91506110418284610d58565b91508190509392505050565b7f4e487b7100000000000000000000000000000000000000000000000000000000600052601160045260246000fd5b600061108782610a99565b915061109283610a99565b92508282019050808211156110aa576110a961104d565b5b92915050565b60006040820190506110c56000830185610c14565b6110d26020830184610b15565b9392505050565b6000815190506110e881610aa3565b92915050565b60006020828403121561110457611103610a94565b5b6000611112848285016110d9565b91505092915050565b600061112682610a99565b915061113183610a99565b92508282039050818111156111495761114861104d565b5b92915050565b7f4e487b7100000000000000000000000000000000000000000000000000000000600052604160045260246000fd5b7f4e487b7100000000000000000000000000000000000000000000000000000000600052601260045260246000fdfea2646970667358221220885794efd9ea2527150e660e9574e3adbd8b6bc9020ee7441184429228e1983264736f6c63430008180033",
  "linkReferences": {},
  "deployedLinkReferences": {}
}